{
  "_format": "hh-sol-artifact-1",
  "contractName": "Grant",
  "sourceName": "contracts/Grants.sol",
  "abi": [
    {
      "inputs": [],
      "stateMutability": "nonpayable",
      "type": "constructor"
    },
    {
      "anonymous": false,
      "inputs": [
        {
          "indexed": true,
          "internalType": "address",
          "name": "to",
          "type": "address"
        },
        {
          "indexed": false,
          "internalType": "uint256",
          "name": "amount",
          "type": "uint256"
        },
        {
          "indexed": false,
          "internalType": "uint256",
          "name": "timestamp",
          "type": "uint256"
        }
      ],
      "name": "GrantSent",
      "type": "event"
    },
    {
      "inputs": [],
      "name": "owner",
      "outputs": [
        {
          "internalType": "address",
          "name": "",
          "type": "address"
        }
      ],
      "stateMutability": "view",
      "type": "function"
    },
    {
      "inputs": [
        {
          "internalType": "address payable",
          "name": "to",
          "type": "address"
        }
      ],
      "name": "sendGrant",
      "outputs": [],
      "stateMutability": "payable",
      "type": "function"
    },
    {
      "stateMutability": "payable",
      "type": "receive"
    }
  ],
  "bytecode": "0x608060405234801561001057600080fd5b50336000806101000a81548173ffffffffffffffffffffffffffffffffffffffff021916908373ffffffffffffffffffffffffffffffffffffffff16021790555061043c806100606000396000f3fe60806040526004361061002d5760003560e01c80638da5cb5b146100395780639b9c26791461006457610034565b3661003457005b600080fd5b34801561004557600080fd5b5061004e610080565b60405161005b9190610250565b60405180910390f35b61007e600480360381019061007991906102ae565b6100a4565b005b60008054906101000a900473ffffffffffffffffffffffffffffffffffffffff1681565b60008054906101000a900473ffffffffffffffffffffffffffffffffffffffff1673ffffffffffffffffffffffffffffffffffffffff163373ffffffffffffffffffffffffffffffffffffffff1614610132576040517f08c379a000000000000000000000000000000000000000000000000000000000815260040161012990610338565b60405180910390fd5b60003411610175576040517f08c379a000000000000000000000000000000000000000000000000000000000815260040161016c906103a4565b60405180910390fd5b8073ffffffffffffffffffffffffffffffffffffffff166108fc349081150290604051600060405180830381858888f193505050501580156101bb573d6000803e3d6000fd5b508073ffffffffffffffffffffffffffffffffffffffff167fbb40a5ef7f18d467c2575f65c078a383350c91433a21d89f8c98f025f9de34be34426040516102049291906103dd565b60405180910390a250565b600073ffffffffffffffffffffffffffffffffffffffff82169050919050565b600061023a8261020f565b9050919050565b61024a8161022f565b82525050565b60006020820190506102656000830184610241565b92915050565b600080fd5b600061027b8261020f565b9050919050565b61028b81610270565b811461029657600080fd5b50565b6000813590506102a881610282565b92915050565b6000602082840312156102c4576102c361026b565b5b60006102d284828501610299565b91505092915050565b600082825260208201905092915050565b7f6f6e6c79206f776e657200000000000000000000000000000000000000000000600082015250565b6000610322600a836102db565b915061032d826102ec565b602082019050919050565b6000602082019050818103600083015261035181610315565b9050919050565b7f73656e6420736f6d652045544800000000000000000000000000000000000000600082015250565b600061038e600d836102db565b915061039982610358565b602082019050919050565b600060208201905081810360008301526103bd81610381565b9050919050565b6000819050919050565b6103d7816103c4565b82525050565b60006040820190506103f260008301856103ce565b6103ff60208301846103ce565b939250505056fea2646970667358221220790b156e18e63cdf33197a45c4230159ff9c2ffec51bf871ae54026c37cc645864736f6c63430008130033",
  "linkReferences": {},
  "deployedLinkReferences": {}
}